:030000000200C833
:0C00C800787FE4F6D8FD75812002010F5E
:1004A0001204CC1203A5E490002CF090002CE0FF85
:1004B000C3940850EE7E001202CC90002CE0FF7E28
:0C04C0000012000E90002CE004F080DF21
:1004E900EF1FAA0670011E4A60107C137D88ED1D5E
:0A04F900AA0470011C4A60E880F4B8
:0105030022D5
:0F052800759DFFE4F5BD75BC807F02FE0204E9FE
:10050400EF4488F5BC00000000E5BC30E4FB53BCBC
:04051400EFAFBD2266
:1005180000000000FFECFFEC000000000000FFEC12
:10045D0048001400000000000000004100020050A0
:10046D00000300000000000000000000000000007C
:10047D00000050001C000000000000000000000003
:10048D000000000000C1014100133C4200000000CB
:02049D00C1009C
:1004CC00120528D2B2E4F5A07596FFF595438E80FF
:0D04DC00758903F58A758C70D28CD2A92227
:0802CC0090002DEEF0A3EFF00D
:1002D4007401A807088002C333D8FCF59012050402
:1002E400AD0790002EE025E0FF90002DE033FE7472
:1002F400182FF58274053EF583E493FE740193FF91
:10030400900013E0FB7A00EF2BFFEA3EFED3ED9F53
:10031400EE6480F8748098401C90002EE025E0FF85
:1003240090002DE033FE74032FF58274003EF583B4
:05033400E4F0A304F059
:0103390022A1
:1004040074142FF582E43400F583E004F074142F9F
:10041400F582E43400F583E0C39414400C74142F83
:10042400F582E43400F583E4F074142FF582E434A7
:1004340000F583E0FED39D500D7401A807088002E7
:10044400C333D8FC42A0EED39D400D74FEA8070828
:090454008002C333D8FC52A0223F
:10015400AD07AC06ED25E0FFEC33FE741C2FF582F1
:1001640074003EF583E475F00112038F741C2FF5BF
:100174008274003EF583E0FEA3E0FF64C84E700E77
:10018400AB0504A803088002C333D8FC42A0EF6483
:10019400E04E700FAF0574FEA807088002C333D881
:1001A400FC52A0ED25E0FFEC33FE741C2FF58274A5
:1001B400003EF583E0FAA3E0C39490EA9401400E74
:0F01C400741C2FF58274003EF583E4F0A3F02243
:1001D300AD07AC06ED25E0FFEC33FE741C2FF58272
:1001E30074003EF583E475F00112038F741C2FF540
:1001F3008274003EF583E0FEA3E0FF64644E700E5C
:10020300AB0504A803088002C333D8FC42A0EF6403
:100213007C4E700FAF0574FEA807088002C333D865
:10022300FC52A0ED25E0FFEC33FE741C2FF5827425
:10023300003EF583E0FAA3E0C394C8EA9400400EBD
:0F024300741C2FF58274003EF583E4F0A3F022C3
:10000E0090002DEFF0900002E014603F1460581441
:10001E006071240360030200C790002DE0FB25E011
:10002E002403F582E43400F583E0FEA3E0FF4E7076
:10003E00030200C7C374049FFF74019EFE7C007D03
:10004E000D12033AAD07AF0302040490002DE0FF3A
:10005E0025E02403F582E43400F583E0FCA3E04CB4
:10006E0060577E0002015490002DE0FF25E024032E
:10007E00F582E43400F583E0FCA3E04C603B7E00A7
:10008E000201D390002DE0FF25E02403F582E43435
:10009E0000F583E0FCA3E04C700D04A80708800275
:1000AE00C333D8FC42A02290002DE0FF74FEA807B7
:0A00BE00088002C333D8FC52A022D0
:1003A50020B243900001E004F07006900000E004E4
:1003B500F0C3900001E094E8900000E0940340262B
:1003C500200023900002E004F0E0D394034015E4FC
:1003D500F0B2019000133001057464F08003743CA1
:1003E500F0E4F5A0D200D3900001E094D090000095
:0E03F500E09407400930B206E4F0A3F0C20025
:0104030022D6
:03000B000202529C
:0D025200C0E0C0F0C083C082C0D075D008ED
:10025F00E4FFEF25E02403F582E43400F583E0FCAE
:10026F00A3E04C6048EF25E02403F582E43400F569
:10027F0083E475F00112038FEF25E02403F582E488
:10028F003400F583E0FCA3E0C39404EC9401401D1B
:10029F00EF25E02403F582E43400F583E4F0A3F0C6
:1002AF0074FEA80F088002C333D8FC52A00FEFB41E
:0202BF0008A095
:0B02C100D0D0D082D083D0F0D0E0324B
:1000D4000204A0E493A3F8E493A34003F68001F29E
:1000E40008DFF48029E493A3F85407240CC8C3332D
:1000F400C4540F4420C8834004F456800146F6DFFC
:10010400E4800B010204081020408090045DE47E2A
:10011400019360BCA3FF543F30E509541FFEE493F0
:10012400A360010ECF54C025E060A840B8E493A3B7
:10013400FAE493A3F8E493A3C8C582C8CAC583CAE2
:10014400F0A3C8C582C8CAC583CADFE9DEE780BE9A
:01049F00005C
:10033A00BC000BBE0029EF8DF084FFADF022E4CCA7
:10034A00F875F008EF2FFFEE33FEEC33FCEE9DEC70
:10035A00984005FCEE9DFE0FD5F0E9E4CEFD22EDB6
:10036A00F8F5F0EE8420D21CFEADF075F008EF2F00
:10037A00FFED33FD4007985006D5F0F222C398FDF1
:05038A000FD5F0EA228E
:10038F00C5F0F8A3E028F0C5F0F8E58215827002F9
:06039F001583E038F02296
:00000001FF
