:030000000209866C
:0C098600787FE4F6D8FD7581210209CDD0
:100C2B00120C57120B64E490042BF090042BE0FF92
:100C3B00C3940850EE7E00120BF090042BE0FF7E65
:0C0C4B00001208BD90042BE004F080DFD4
:100CA600EF1FAA0670011E4A60107C137D88ED1D99
:0A0CB600AA0470011C4A60E880F4F3
:010CC0002211
:100CD50075985A75D7D875D6FF438E14438E012261
:080003003099FDC2998F99228A
:0F0CE500759DFFE4F5BD75BC807F02FE020CA675
:100CC100EF4488F5BC00000000E5BC30E4FB53BCF8
:040CD100EFAFBD22A2
:100BAF004C454420496E74657261637469766520A3
:100BBF004465736B0A6279207869616F33642061D1
:100BCF006E6420426C616E626F6F6D0A6874747030
:100BDF003A2F2F626C616E626F6F6D2E6F72670AA4
:010BEF000005
:10000E0048041300000000000000004104020050EC
:10001E0004030000000000000000000000000000CB
:10002E00000050041B000000000000000000000053
:10003E0000000000006400000208FF000000000045
:10004E0000000000000000000000000000000000A2
:10005E000000000000000000000000000000000092
:10006E000000000000000000000000000000000082
:10007E000000000000000000000000000000000072
:10008E000000000000000000000000000000000062
:10009E000000000000000000000000000000000052
:1000AE000000000000000000000000000000000042
:1000BE000000000000000000000000000000000032
:1000CE000000000000000000000000000000000022
:1000DE000000000000000000000000000000000012
:1000EE000000000000000000000000000000000002
:1000FE0000000000000000000000000000000000F2
:10010E0000000000000000000000000000000000E1
:10011E0000000000000000000000000000000000D1
:10012E0000000000000000000000000000000000C1
:10013E0000000000000000000064FF00000000004E
:10014E0000000000000000000000000000000000A1
:10015E000000000000000000000000000000000091
:10016E000000000000000000000000000000000081
:10017E000000000000000000000000000000000071
:10018E000000000000000000000000000000000061
:10019E000000000000000000000000000000000051
:1001AE000000000000000000000000000000000041
:1001BE000000000000000000000000000000000031
:1001CE000000000000000000000000000000000021
:1001DE000000000000000000000000000000000011
:1001EE000000000000000000000000000000000001
:1001FE0000000000000000000000000000000000F1
:10020E0000000000000000000000000000000000E0
:10021E0000000000000000000000000000000000D0
:10022E0000000000000000000000000000000000C0
:10023E0000000000000000000064FFF5EBE1D7CDE8
:10024E00C3B9AFA59B91877D735F55412300000015
:10025E000000000000000000000000000000000090
:10026E000000000000000000000000000000000080
:10027E000000000000000000000000000000000070
:10028E000000000000000000000000000000000060
:10029E000000000000000000000000000000000050
:1002AE000000000000000000000000000000000040
:1002BE000000000000000000000000000000000030
:1002CE000000000000000000000000000000000020
:1002DE000000000000000000000000000000000010
:1002EE000000000000000000000000000000000000
:1002FE0000000000000000000000000000000000F0
:10030E0000000000000000000000000000000000DF
:10031E0000000000000000000000000000000000CF
:10032E0000000000000000000000000000000000BF
:10033E0000000000000000000064FFF5EBE1D7CDE7
:10034E00C3B9AFA59B91877D735F4B23FF00000060
:10035E00000000000000000000000000000000008F
:10036E00000000000000000000000000000000007F
:10037E00000000000000000000000000000000006F
:10038E00000000000000000000000000000000005F
:10039E00000000000000000000000000000000004F
:1003AE00000000000000000000000000000000003F
:1003BE00000000000000000000000000000000002F
:1003CE00000000000000000000000000000000001F
:1003DE00000000000000000000000000000000000F
:1003EE0000000000000000000000000000000000FF
:1003FE0000000000000000000000000000000000EF
:10040E0000000000000000000000000000000000DE
:10041E0000000000000000000000000000000000CE
:10042E0000000000000000000000000000000000BE
:10043E000000000000000000004200000000C109A2
:100C5700120CD5120CE5D2B2E4F5A07596FFF59506
:100C6700438E80758903F58A758C70D28CD2A97BE7
:080C7700FF7A0B79AF0204BA09
:080BF00090042CEEF0A3EFF0DD
:100BF8007401A807088002C333D8FCF590120CC111
:100C0800EFD3941E401C90042DE025E0FF90042CA7
:100C1800E033FE74032FF58274043EF583E4F0A3F9
:020C280004F0D6
:010C2A0022A7
:100B0B0074132FF582E43404F583E004F074132F8F
:100B1B00F582E43404F583E0C39414400C74132F72
:100B2B00F582E43404F583E4F074132FF582E43496
:100B3B0004F583E0FED39D500D7401A807088002D5
:100B4B00C333D8FC42A0EED39D400D74FEA807081A
:090B5B008002C333D8FC52A02231
:100A1200AD07AC06ED25E0FFEC33FE741B2FF5822B
:100A220074043EF583E475F001120809741B2FF576
:100A32008274043EF583E0FEA3E0FF64644E700E10
:100A4200AB0504A803088002C333D8FC42A0EF64BC
:100A5200704E700FAF0574FEA807088002C333D82A
:100A6200FC52A0ED25E0FFEC33FE741B2FF58274DF
:100A7200043EF583E0FAA3E0C394C8EA9400400E72
:0F0A8200741B2FF58274043EF583E4F0A3F02279
:1008BD0090042CEFF0900402E014603F146061147A
:1008CD00607A2403600302098590042CE0FB25E087
:1008DD002403F582E43404F583E0FEA3E0FF4E70BB
:1008ED0003020985C374049FFF74019EFE7C007D85
:1008FD000D1207B4AD07AF03020B0B90042CE0FFF4
:10090D0025E02403F582E43404F583E0FCA3E04CF8
:10091D0060667401A807088002C333D8FC42A02288
:10092D0090042CE0FF25E02403F582E43404F583E4
:10093D00E0FCA3E04C60417E00020A1290042CE022
:10094D00FF25E02403F582E43404F583E0FCA3E005
:10095D0064014C700D04A807088002C333D8FC4213
:10096D00A02290042CE025E02403F582E43404F564
:09097D00837401F0A37405F0225B
:100B640020B22F900001E004F07006900000E00431
:100B7400F0D3900001E094C8900000E0940050127B
:100B840020090F900402E004F0E094034002E4F032
:100B9400D209D3900001E094C8900000E094004092
:0A0BA4000930B206E4F0A3F0C20924
:010BAE002224
:03000B00020A9155
:0D0A9100C0E0C0F0C083C082C0D075D008A6
:100A9E00E4FFEF25E02403F582E43404F583E0FC63
:100AAE00A3E04C6048EF25E02403F582E43404F51E
:100ABE0083E475F001120809EF25E02403F582E4C2
:100ACE003404F583E0FCA3E0C39404EC9401401DD0
:100ADE00EF25E02403F582E43404F583E4F0A3F07B
:100AEE0074FEA80F088002C333D8FC52A00FEFB4D7
:020AFE0008A04E
:0B0B0000D0D0D082D083D0F0D0E03203
:10099200020C2BE493A3F8E493A34003F68001F244
:1009A20008DFF48029E493A3F85407240CC8C33366
:1009B200C4540F4420C8834004F456800146F6DF35
:1009C200E4800B010204081020408090000EE47EB7
:1009D200019360BCA3FF543F30E509541FFEE4932A
:1009E200A360010ECF54C025E060A840B8E493A3F1
:1009F200FAE493A3F8E493A3C8C582C8CAC583CA1C
:100A0200F0A3C8C582C8CAC583CADFE9DEE780BED3
:01044E0000AD
:1007B400BC000BBE0029EF8DF084FFADF022E4CC29
:1007C400F875F008EF2FFFEE33FEEC33FCEE9DECF2
:1007D400984005FCEE9DFE0FD5F0E9E4CEFD22ED38
:1007E400F8F5F0EE8420D21CFEADF075F008EF2F82
:1007F400FFED33FD4007985006D5F0F222C398FD73
:050804000FD5F0EA220F
:10080900C5F0F8A3E028F0C5F0F8E582158270027A
:060819001583E038F02217
:10044F00E510242FF582E43404F583E005102290A3
:10045F00042C30070390042FE475F0011208770283
:10046F00081F2000E97F2ED2008018EF540F249030
:10047F00D43440D4FF30040BEF24BFB41A00500320
:10048F002461FFE511600215110514E514700205D2
:10049F001330070E90042CE475F001120877EF0269
:1004AF000865020C7F7403D2078003E4C207F510BE
:1004BF0090042C12088EE4F511F513F514E5116074
:1004CF00077F2012049280F57512FFC201C200C28D
:1004DF0002C203C205C206C20812045EFF700D30CD
:1004EF0007057F001204A3AF14AE1322B4255FC219
:1004FF00D5C20412045EFF24D0B40A00501A75F05E
:10050F000A781130D50508B6FF0106C6A426F620D5
:10051F00D5047002D20380D924CFB41A00EF50044F
:10052F00C2E5D2040206A4D20180C6D20080C0D296
:10053F000280BCD2D580BAD20580B47F201204923B
:10054F002002077401B5110040F112044FFF12048D
:10055F00920204CCD208D206809512044FFB1204EB
:10056F004FFA12044FF94A4B700679757A077BFFE1
:10057F0020022EE511602A7E008E827583001208FC
:10058F003860060EEE651270F0C2D5EBC0E0EAC01F
:10059F00E0E9C0E0EE1206EBD0E0F9D0E0FAD0E0EF
:1005AF00FB12081FFF60AAEBC0E0EAC0E0E9C0E061
:1005BF00120492D0E02401F9D0E03400FAD0E0FB2D
:1005CF00E5120460DCD512D980877BFF7A0679E7C4
:1005DF00D202809C791080027908C206C208800876
:1005EF00D2D5790A8004790AC2D5E512047002F5D2
:1005FF0012E4FAFDFEFF12044FFC7B0820011312D8
:10060F00044FFD7B1030000A12044FFE12044FFFFF
:10061F007B20EC3382D592D55013C3E43000069F74
:10062F00FFE49EFEE42001039DFDE49CFCE4CBF877
:10063F00C201EC700CCFCECDCCE824F8F870F3806B
:10064F0017C3EF33FFEE33FEED33FDEC33FCEB332B
:10065F00FB994002FB0FD8E9EB300105F8D0E0C45D
:10066F0048B201C0E00AEC4D4E4F78207B0070C2BB
:10067F00EAB5120040BCC0E01206EDD0F0D0E02089
:10068F000104C4C0E0C4B201C0F012047BD0F0D5A5
:10069F00F0EB0204CC12089705695305E358053AAD
:1006AF004C05364205E74F05EF4405EF49054F432B
:0806BF0005F55505D94605D9E2
:1006C7004505D947079550053E2D05422E05652B53
:1006D700054623056320077E2A04FE480000055DC2
:1006E7003F3F3F00790AA2D5200314300509B9100E
:1006F700020404B9080104A2D5200602500104200F
:1007070002689202B511005034C0E07F203003190F
:100717007F30A20272067205500F120744C202C24E
:1007270006C205C2087F30800F300503E9C0E0121A
:100737000492300503D0E0F9D0E0B511CC300517AD
:100747007F30B9100C1204927F583004077F7880ED
:1007570003B908031204923002057F2D0204927F29
:10076700202008F87F2B2006F322920280CF286EE4
:10077700756C6C2900D20112044F3001F8C2017860
:100787001130D50108F60204FE2D504349581204D2
:100797004F2403B405004001E490079093120483AB
:0D07A700743A120483D2037511040205E3B5
:10081F00BB010689828A83E0225002E722BBFE02D7
:09082F00E32289828A83E493220A
:10083800BB010CE58229F582E5833AF583E0225075
:1008480006E92582F8E622BBFE06E92582F8E222BF
:0D085800E58229F582E5833AF583E49322D9
:10086500BB010689828A83F0225002F722BBFE0172
:02087500F3226C
:10087700F8E0FBA3A3E0F925F0F0E582158270020A
:070887001583E0FA38F022AE
:09088E00EBF0A3EAF0A3E9F0226B
:10089700D083D082F8E4937012740193700DA3A3F0
:1008A70093F8740193F5828883E473740293686004
:0608B700EFA3A3A380DF04
:100C7F00EFB40A07740D120C8A740A309811A899F0
:100C8F00B8130CC2983098FDA899C298B811F630D5
:070C9F0099FDC299F59922AD
:00000001FF
