:0300000002053FB7
:0C053F00787FE4F6D8FD75812102058666
:1008220012084E12071DE490002BF090002BE0FFFF
:10083200C3940850EE7E001207E790002BE0FF7E83
:0C0842000012047C90002BE004F080DF2A
:10089D00EF1FAA0670011E4A60107C137D88ED1DA6
:0A08AD00AA0470011C4A60E880F400
:0108B700221E
:1008CC0075985A75D7D875D6FF438E14438E01226E
:080003003099FDC2998F99228A
:0F08DC00759DFFE4F5BD75BC807F02FE02089D8F
:1008B800EF4488F5BC00000000E5BC30E4FB53BC05
:0408C800EFAFBD22AF
:100769004C454420496E74657261637469766520ED
:100779004465736B0A6279207869616F336420611B
:100789006E6420426C616E626F6F6D0A687474707A
:100799003A2F2F626C616E626F6F6D2E6F72670AEE
:0107A900004F
:1007AA004800130000000000000000410002005051
:1007BA00000300000000000000000000000000002C
:1007CA00000050001B0000000000000000000000B4
:0C07DA0000000000004200000000C10907
:10084E001208CC1208DCD2B2E4F5A07596FFF5952D
:10085E00438E80758903F58A758C70D28CD2A97BF4
:08086E00FF7A077969020079A5
:0807E70090002CEEF0A3EFF0EE
:1007EF007401A807088002C333D8FCF5901208B82B
:1007FF00EFD3945A401C90002DE025E0FF90002C81
:10080F00E033FE74032FF58274003EF583E4F0A30A
:02081F0004F0E3
:0108210022B4
:1006C40074132FF582E43400F583E004F074132FDF
:1006D400F582E43400F583E0C39414400C74132FC2
:1006E400F582E43400F583E4F074132FF582E434E6
:1006F40000F583E0FED39D500D7401A80708800225
:10070400C333D8FC42A0EED39D400D74FEA8070865
:090714008002C333D8FC52A0227C
:1005CB00AD07AC06ED25E0FFEC33FE741B2FF58277
:1005DB0074003EF583E475F0011203C8741B2FF50C
:1005EB008274003EF583E0FEA3E0FF64C84E700EFC
:1005FB00AB0504A803088002C333D8FC42A0EF6408
:10060B00E04E700FAF0574FEA807088002C333D805
:10061B00FC52A0ED25E0FFEC33FE741B2FF582742A
:10062B00003EF583E0FAA3E0C39490EA9401400EF8
:0F063B00741B2FF58274003EF583E4F0A3F022C8
:10047C0090002CEFF0900002E014603F14606114C7
:10048C00607A2403600302053E90002CE0FB25E01B
:10049C002403F582E43400F583E0FEA3E0FF4E7004
:1004AC000302053EC374049FFF74019EFE7C007D15
:1004BC000D120373AD07AF030206C490002CE0FFCE
:1004CC0025E02403F582E43400F583E0FCA3E04C42
:1004DC0060607401A807088002C333D8FC42A022D4
:1004EC0090002CE0FF25E02403F582E43400F58332
:1004FC00E0FCA3E04C603B7E000205CB90002CE0BE
:10050C00FF25E02403F582E43400F583E0FCA3E04E
:10051C004C700D04A807088002C333D8FC42A022FB
:10052C0090002CE0FF74FEA807088002C333D8FCAF
:03053C0052A022A8
:10071D0020B230900001E004F07006900000E0047B
:10072D00F0C3900001E094E8900000E094034013C2
:10073D00200910900002E004F0E0D394034002E49D
:10074D00F0D209D3900001E094D0900000E094071E
:0B075D00400930B206E4F0A3F0C2092E
:01076800226E
:03000B0002064AA0
:0D064A00C0E0C0F0C083C082C0D075D008F1
:10065700E4FFEF25E02403F582E43400F583E0FCB2
:10066700A3E04C6048EF25E02403F582E43400F56D
:1006770083E475F0011203C8EF25E02403F582E453
:100687003400F583E0FCA3E0C39404EC9401401D1F
:10069700EF25E02403F582E43400F583E4F0A3F0CA
:1006A70074FEA80F088002C333D8FC52A00FEFB422
:0206B70008A099
:0B06B900D0D0D082D083D0F0D0E0324F
:10054B00020822E493A3F8E493A34003F68001F29C
:10055B0008DFF48029E493A3F85407240CC8C333B1
:10056B00C4540F4420C8834004F456800146F6DF80
:10057B00E4800B01020408102040809007AAE47E5F
:10058B00019360BCA3FF543F30E509541FFEE49375
:10059B00A360010ECF54C025E060A840B8E493A33C
:1005AB00FAE493A3F8E493A3C8C582C8CAC583CA67
:1005BB00F0A3C8C582C8CAC583CADFE9DEE780BE1F
:0107E6000012
:10037300BC000BBE0029EF8DF084FFADF022E4CC6E
:10038300F875F008EF2FFFEE33FEEC33FCEE9DEC37
:10039300984005FCEE9DFE0FD5F0E9E4CEFD22ED7D
:1003A300F8F5F0EE8420D21CFEADF075F008EF2FC7
:1003B300FFED33FD4007985006D5F0F222C398FDB8
:0503C3000FD5F0EA2255
:1003C800C5F0F8A3E028F0C5F0F8E58215827002C0
:0603D8001583E038F0225D
:10000E00E510242FF582E43400F583E005102290EC
:10001E00002C30070390002FE475F0011204360215
:10002E0003DE2000E97F2ED2008018EF540F2490BB
:10003E00D43440D4FF30040BEF24BFB41A00500365
:10004E002461FFE511600215110514E51470020517
:10005E001330070E90002CE475F001120436EF02F7
:10006E0004240208767403D2078003E4C207F51055
:10007E0090002C12044DE4F511F513F514E5116002
:10008E00077F2012005180F57512FFC201C200C217
:10009E0002C203C205C206C20812001DFF700D3057
:1000AE0007057F00120062AF14AE1322B4255FC2A3
:1000BE00D5C20412001DFF24D0B40A00501A75F0E8
:1000CE000A781130D50508B6FF0106C6A426F6201B
:1000DE00D5047002D20380D924CFB41A00EF500495
:1000EE00C2E5D204020263D20180C6D20080C0D221
:1000FE000280BCD2D580BAD20580B47F20120051C6
:10010E002002077401B5110040F112000EFF12001B
:10011E005102008BD208D206809512000EFB1200FF
:10012E000EFA12000EF94A4B700679347A037BFFF1
:10013E0020022EE511602A7E008E82758300120346
:10014E00F760060EEE651270F0C2D5EBC0E0EAC0A5
:10015E00E0E9C0E0EE1202AAD0E0F9D0E0FAD0E079
:10016E00FB1203DEFF60AAEBC0E0EAC0E0E9C0E0EC
:10017E00120051D0E02401F9D0E03400FAD0E0FBB7
:10018E00E5120460DCD512D980877BFF7A0279A64E
:10019E00D202809C791080027908C206C2088008BB
:1001AE00D2D5790A8004790AC2D5E512047002F517
:1001BE0012E4FAFDFEFF12000EFC7B082001131262
:1001CE00000EFD7B1030000A12000EFE12000EFF14
:1001DE007B20EC3382D592D55013C3E43000069FBA
:1001EE00FFE49EFEE42001039DFDE49CFCE4CBF8BD
:1001FE00C201EC700CCFCECDCCE824F8F870F380B1
:10020E0017C3EF33FFEE33FEED33FDEC33FCEB3370
:10021E00FB994002FB0FD8E9EB300105F8D0E0C4A2
:10022E0048B201C0E00AEC4D4E4F78207B0070C200
:10023E00EAB5120040BCC0E01202ACD0F0D0E02013
:10024E000104C4C0E0C4B201C0F012003AD0F0D52F
:10025E00F0EB02008B12045601285301A25800F94C
:10026E004C00F54201A64F01AE4401AE49010E43CA
:08027E0001B4550198460198F6
:100286004501984703545000FD2D01012E01242BF2
:10029600010523012220033D2A00BD480000011C60
:1002A6003F3F3F00790AA2D5200314300509B91053
:1002B600020404B9080104A2D52006025001042054
:1002C60002689202B511005034C0E07F2030031955
:1002D6007F30A20272067205500F120303C202C2D9
:1002E60006C205C2087F30800F300503E9C0E01260
:1002F6000051300503D0E0F9D0E0B511CC30051738
:100306007F30B9100C1200517F583004077F788077
:1003160003B908031200513002057F2D0200517FF8
:10032600202008F87F2B2006F322920280CF286E29
:10033600756C6C2900D20112000E3001F8C20178EA
:100346001130D50108F60200BD2D50434958120060
:100356000E2403B405004001E490034F93120042BB
:0D036600743A120042D2037511040201A284
:1003DE00BB010689828A83E0225002E722BBFE021D
:0903EE00E32289828A83E4932250
:1003F700BB010CE58229F582E5833AF583E02250BB
:1004070006E92582F8E622BBFE06E92582F8E22204
:0D041700E58229F582E5833AF583E493221E
:10042400BB010689828A83F0225002F722BBFE01B7
:02043400F322B1
:10043600F8E0FBA3A3E0F925F0F0E582158270024F
:070446001583E0FA38F022F3
:09044D00EBF0A3EAF0A3E9F022B0
:10045600D083D082F8E4937012740193700DA3A335
:1004660093F8740193F5828883E473740293686049
:06047600EFA3A3A380DF49
:10087600EFB40A07740D120881740A309811A8990A
:10088600B8130CC2983098FDA899C298B811F630E2
:0708960099FDC299F59922BA
:00000001FF
