:030000000205896D
:0C058900787FE4F6D8FD7581210205D0D2
:10099B001209C7120910E490002BF090002BE0FF16
:1009AB00C3940850EE7E0012086790002BE0FF7E88
:0C09BB000012037390002BE004F080DFBA
:100A1600EF1FAA0670011E4A60107C137D88ED1D2B
:0A0A2600AA0470011C4A60E880F485
:010A300022A3
:100A450075985A75D7D875D6FF438E14438E0122F3
:080003003099FDC2998F99228A
:0F0A5500759DFFE4F5BD75BC807F02FE020A1699
:100A3100EF4488F5BC00000000E5BC30E4FB53BC8A
:040A4100EFAFBD2234
:1008BF004C454420496E7465726163746976652096
:1008CF004465736B0A6279207869616F33642061C4
:1008DF006E6420426C616E626F6F6D0A6874747023
:1008EF003A2F2F626C616E626F6F6D2E6F72670A97
:1008FF000000000000FFECFFEC000000000000FF14
:01090F00ECFB
:10095E00480013000000000000000041000200509B
:10096E000003000000000000000000000000000076
:10097E00000050001B0000000000000000000000FE
:0C098E0000000000004200000000C10951
:1009C700120A45120A55D2B2E4F5A07596FFF595BD
:1009D700438E80758903F58A758C70D28CD2A97B7A
:0809E700FF7A0879BF020079D4
:0808670090002CEEF0A3EFF06D
:10086F007401A807088002C333D8FCF590120A312F
:10087F00AD0790002DE025E0FF90002CE033FE74D3
:10088F00002FF58274093EF583740193243CFBE439
:10089F00933400FAD3ED9BEA6480F8748098400F8C
:0F08AF0074032FF58274003EF583E4F0A304F088
:0108BE002217
:10080E0074132FF582E43400F583E004F074132F93
:10081E00F582E43400F583E0C39414400C74132F76
:10082E00F582E43400F583E4F074132FF582E4349A
:10083E0000F583E0FED39D500D7401A807088002D9
:10084E00C333D8FC42A0EED39D400D74FEA807081A
:09085E008002C333D8FC52A02231
:10069600AD07AC06ED25E0FFEC33FE741B2FF582AB
:1006A60074003EF583E475F0011204D5741B2FF532
:1006B6008274003EF583E0FEA3E0FF64C84E700E30
:1006C600AB0504A803088002C333D8FC42A0EF643C
:1006D600E04E700FAF0574FEA807088002C333D83A
:1006E600FC52A0ED25E0FFEC33FE741B2FF582745F
:1006F600003EF583E0FAA3E0C39490EA9401400E2D
:0F070600741B2FF58274003EF583E4F0A3F022FC
:10071500AD07AC06ED25E0FFEC33FE741B2FF5822B
:1007250074003EF583E475F0011204D5741B2FF5B2
:100735008274003EF583E0FEA3E0FF64644E700E14
:10074500AB0504A803088002C333D8FC42A0EF64BC
:100755007C4E700FAF0574FEA807088002C333D81E
:10076500FC52A0ED25E0FFEC33FE741B2FF58274DF
:10077500003EF583E0FAA3E0C394C8EA9400400E76
:0F078500741B2FF58274003EF583E4F0A3F0227D
:10061500AD07AC06ED25E0FFEC33FE741B2FF5822C
:1006250074003EF583E475F0011204D5741B2FF5B3
:100635008274003EF583E0FEA3E0FFBE0112BF9089
:100645000FAB057401A803088002C333D8FC42A090
:10065500BE0112BFC20FAF0574FEA807088002C312
:1006650033D8FC52A0ED25E0FFEC33FE741B2FF5CB
:100675008274003EF583E0FAA3E0C39420EA940374
:10068500400E741B2FF58274003EF583E4F0A3F051
:010695002242
:1003730090002CEFF0900002E014604E14607314B0
:10038300700302041114700302042D147003020499
:10039300492405600302047F90002CE0FB25E02440
:1003A30003F582E43400F583E0FEA3E0FF4E70031F
:1003B30002047FC374049FFF74019EFE7C007D0DC5
:1003C300120480AD07AF0302080E90002CE0FF2556
:1003D300E02403F582E43400F583E0FCA3E04C70F1
:1003E3000302047F7401A807088002C333D8FC42C8
:1003F300A02290002CE0FF25E02403F582E43400E2
:10040300F583E0FCA3E04C60737E00020696900047
:100413002CE0FF25E02403F582E43400F583E0FCBF
:10042300A3E04C60577E0002071590002CE0FF25E7
:10043300E02403F582E43400F583E0FCA3E04C60A0
:100443003B7E0002061590002CE0FF25E02403F517
:1004530082E43400F583E0FCA3E04C700D04A807AC
:10046300088002C333D8FC42A02290002CE0FF7422
:0D047300FEA807088002C333D8FC52A02267
:1009100020B232900001E004F07006900000E00484
:10092000F0C3900001E094E8900000E094034015CB
:10093000200912900002E004F0E0D394054004E4A2
:10094000F0F5A0D209D3900001E094D0900000E02F
:0D0950009407400930B206E4F0A3F0C2099C
:01095D002277
:03000B0002079455
:0D079400C0E0C0F0C083C082C0D075D008A6
:1007A100E4FFEF25E02403F582E43400F583E0FC67
:1007B100A3E04C6048EF25E02403F582E43400F522
:1007C10083E475F0011204D5EF25E02403F582E4FA
:1007D1003400F583E0FCA3E0C39404EC9401401DD4
:1007E100EF25E02403F582E43400F583E4F0A3F07F
:1007F10074FEA80F088002C333D8FC52A00FEFB4D7
:0208010008A04D
:0B080300D0D0D082D083D0F0D0E03203
:1005950002099BE493A3F8E493A34003F68001F2D8
:1005A50008DFF48029E493A3F85407240CC8C33367
:1005B500C4540F4420C8834004F456800146F6DF36
:1005C500E4800B010204081020408090095EE47E5F
:1005D500019360BCA3FF543F30E509541FFEE4932B
:1005E500A360010ECF54C025E060A840B8E493A3F2
:1005F500FAE493A3F8E493A3C8C582C8CAC583CA1D
:10060500F0A3C8C582C8CAC583CADFE9DEE780BED4
:01099A00005C
:10048000BC000BBE0029EF8DF084FFADF022E4CC60
:10049000F875F008EF2FFFEE33FEEC33FCEE9DEC29
:1004A000984005FCEE9DFE0FD5F0E9E4CEFD22ED6F
:1004B000F8F5F0EE8420D21CFEADF075F008EF2FB9
:1004C000FFED33FD4007985006D5F0F222C398FDAA
:0504D0000FD5F0EA2247
:1004D500C5F0F8A3E028F0C5F0F8E58215827002B2
:0604E5001583E038F0224F
:10000E00E510242FF582E43400F583E005102290EC
:10001E00002C30070390002FE475F0011205430207
:10002E0004EB2000E97F2ED2008018EF540F2490AD
:10003E00D43440D4FF30040BEF24BFB41A00500365
:10004E002461FFE511600215110514E51470020517
:10005E001330070E90002CE475F001120543EF02E9
:10006E0005310209EF7403D2078003E4C207F510CD
:10007E0090002C12055AE4F511F513F514E51160F4
:10008E00077F2012005180F57512FFC201C200C217
:10009E0002C203C205C206C20812001DFF700D3057
:1000AE0007057F00120062AF14AE1322B4255FC2A3
:1000BE00D5C20412001DFF24D0B40A00501A75F0E8
:1000CE000A781130D50508B6FF0106C6A426F6201B
:1000DE00D5047002D20380D924CFB41A00EF500495
:1000EE00C2E5D204020263D20180C6D20080C0D221
:1000FE000280BCD2D580BAD20580B47F20120051C6
:10010E002002077401B5110040F112000EFF12001B
:10011E005102008BD208D206809512000EFB1200FF
:10012E000EFA12000EF94A4B700679347A037BFFF1
:10013E0020022EE511602A7E008E82758300120544
:10014E000460060EEE651270F0C2D5EBC0E0EAC098
:10015E00E0E9C0E0EE1202AAD0E0F9D0E0FAD0E079
:10016E00FB1204EBFF60AAEBC0E0EAC0E0E9C0E0DE
:10017E00120051D0E02401F9D0E03400FAD0E0FBB7
:10018E00E5120460DCD512D980877BFF7A0279A64E
:10019E00D202809C791080027908C206C2088008BB
:1001AE00D2D5790A8004790AC2D5E512047002F517
:1001BE0012E4FAFDFEFF12000EFC7B082001131262
:1001CE00000EFD7B1030000A12000EFE12000EFF14
:1001DE007B20EC3382D592D55013C3E43000069FBA
:1001EE00FFE49EFEE42001039DFDE49CFCE4CBF8BD
:1001FE00C201EC700CCFCECDCCE824F8F870F380B1
:10020E0017C3EF33FFEE33FEED33FDEC33FCEB3370
:10021E00FB994002FB0FD8E9EB300105F8D0E0C4A2
:10022E0048B201C0E00AEC4D4E4F78207B0070C200
:10023E00EAB5120040BCC0E01202ACD0F0D0E02013
:10024E000104C4C0E0C4B201C0F012003AD0F0D52F
:10025E00F0EB02008B12056301285301A25800F93E
:10026E004C00F54201A64F01AE4401AE49010E43CA
:08027E0001B4550198460198F6
:100286004501984703545000FD2D01012E01242BF2
:10029600010523012220033D2A00BD480000011C60
:1002A6003F3F3F00790AA2D5200314300509B91053
:1002B600020404B9080104A2D52006025001042054
:1002C60002689202B511005034C0E07F2030031955
:1002D6007F30A20272067205500F120303C202C2D9
:1002E60006C205C2087F30800F300503E9C0E01260
:1002F6000051300503D0E0F9D0E0B511CC30051738
:100306007F30B9100C1200517F583004077F788077
:1003160003B908031200513002057F2D0200517FF8
:10032600202008F87F2B2006F322920280CF286E29
:10033600756C6C2900D20112000E3001F8C20178EA
:100346001130D50108F60200BD2D50434958120060
:100356000E2403B405004001E490034F93120042BB
:0D036600743A120042D2037511040201A284
:1004EB00BB010689828A83E0225002E722BBFE020F
:0904FB00E32289828A83E4932242
:10050400BB010CE58229F582E5833AF583E02250AC
:1005140006E92582F8E622BBFE06E92582F8E222F6
:0D052400E58229F582E5833AF583E4932210
:10053100BB010689828A83F0225002F722BBFE01A9
:02054100F322A3
:10054300F8E0FBA3A3E0F925F0F0E5821582700241
:070553001583E0FA38F022E5
:09055A00EBF0A3EAF0A3E9F022A2
:10056300D083D082F8E4937012740193700DA3A327
:1005730093F8740193F5828883E47374029368603B
:06058300EFA3A3A380DF3B
:1009EF00EFB40A07740D1209FA740A309811A89916
:1009FF00B8130CC2983098FDA899C298B811F63068
:070A0F0099FDC299F599223F
:00000001FF
