:030000000208AA49
:0C08AA00787FE4F6D8FD7581210208F18A
:100B5600120B82120A8FE490041BF090041BE0FF34
:100B6600C3940850EE7E00120B1B90041BE0FF7E20
:0C0B76000012093690041BE004F080DF40
:100BD100EF1FAA0670011E4A60107C137D88ED1D6F
:0A0BE100AA0470011C4A60E880F4C9
:010BEB0022E7
:100C000075985A75D7D875D6FF438E14438E012236
:080003003099FDC2998F99228A
:0F0C1000759DFFE4F5BD75BC807F02FE020BD120
:100BEC00EF4488F5BC00000000E5BC30E4FB53BCCE
:040BFC00EFAFBD2278
:100ADA004C454420496E7465726163746976652079
:100AEA004465736B0A6279207869616F33642061A7
:100AFA006E6420426C616E626F6F6D0A6874747006
:100B0A003A2F2F626C616E626F6F6D2E6F72670A79
:010B1A0000DA
:10000E0048041300000000000000004104020050EC
:10001E0004030000000000000000000000000000CB
:10002E0000006400000208FF000000000000000055
:10003E0000000000000000000000000000000000B2
:10004E0000000000000000000000000000000000A2
:10005E000000000000000000000000000000000092
:10006E000000000000000000000000000000000082
:10007E000000000000000000000000000000000072
:10008E000000000000000000000000000000000062
:10009E000000000000000000000000000000000052
:1000AE000000000000000000000000000000000042
:1000BE000000000000000000000000000000000032
:1000CE000000000000000000000000000000000022
:1000DE000000000000000000000000000000000012
:1000EE000000000000000000000000000000000002
:1000FE0000000000000000000000000000000000F2
:10010E0000000000000000000000000000000000E1
:10011E0000000000000000000000000000000000D1
:10012E0000000000000064FF00000000000000005E
:10013E0000000000000000000000000000000000B1
:10014E0000000000000000000000000000000000A1
:10015E000000000000000000000000000000000091
:10016E000000000000000000000000000000000081
:10017E000000000000000000000000000000000071
:10018E000000000000000000000000000000000061
:10019E000000000000000000000000000000000051
:1001AE000000000000000000000000000000000041
:1001BE000000000000000000000000000000000031
:1001CE000000000000000000000000000000000021
:1001DE000000000000000000000000000000000011
:1001EE000000000000000000000000000000000001
:1001FE0000000000000000000000000000000000F1
:10020E0000000000000000000000000000000000E0
:10021E0000000000000000000000000000000000D0
:10022E0000000000000064FFF5EBE1D7CDC3B9AFCD
:10023E00A59B91877D735F55412300000000000050
:10024E0000000000000000000000000000000000A0
:10025E000000000000000000000000000000000090
:10026E000000000000000000000000000000000080
:10027E000000000000000000000000000000000070
:10028E000000000000000000000000000000000060
:10029E000000000000000000000000000000000050
:1002AE000000000000000000000000000000000040
:1002BE000000000000000000000000000000000030
:1002CE000000000000000000000000000000000020
:1002DE000000000000000000000000000000000010
:1002EE000000000000000000000000000000000000
:1002FE0000000000000000000000000000000000F0
:10030E0000000000000000000000000000000000DF
:10031E0000000000000000000000000000000000CF
:10032E0000000000000064FFF5EBE1D7CDC3B9AFCC
:10033E00A59B91877D735F4B23FF0000000000009B
:10034E00000000000000000000000000000000009F
:10035E00000000000000000000000000000000008F
:10036E00000000000000000000000000000000007F
:10037E00000000000000000000000000000000006F
:10038E00000000000000000000000000000000005F
:10039E00000000000000000000000000000000004F
:1003AE00000000000000000000000000000000003F
:1003BE00000000000000000000000000000000002F
:1003CE00000000000000000000000000000000001F
:1003DE00000000000000000000000000000000000F
:1003EE0000000000000000000000000000000000FF
:1003FE0000000000000000000000000000000000EF
:10040E0000000000000000000000000000000000DE
:10041E0000000000000000000000000000000000CE
:0D042E000000000000004200000000C109B5
:100B8200120C00120C10D2B2E4F5A07596FFF59586
:100B9200438E80758903F58A758C70D28CD2A97BBD
:080BA200FF7A0A79DA0204A7C8
:080B1B0090041CEEF0A3EFF0C2
:100B23007401A807088002C333D8FCF590120BECBC
:100B3300EFD3941E401C90041DE025E0FF90041C9D
:100B4300E033FE74032FF58274043EF583E4F0A3CF
:020B530004F0AC
:010B5500227D
:100A350074132FF582E43404F583E004F074132F66
:100A4500F582E43404F583C374809481400C7413F7
:100A55002FF582E43404F583E4F074132FF582E472
:100A65003404F583E0FED39D500D7401A80708807A
:100A750002C333D8FC42A0EED39D400D74FEA807F7
:0A0A8500088002C333D8FC52A022FF
:10093600AB07900402E0FA7F00FEEF2402F5827412
:10094600003EF583E0FD7C00EB25E02403F582E420
:100956003404F583E0FEA3E024FFFFEE34FFFE122D
:1009660007A1ED4C704FEA7F00FEEF2402F582747A
:10097600003EF583E0FD7C00EB25E02403F582E4F0
:100986003404F583E0FEA3E024FFFFEE34FFFE12FD
:1009960007A1AC06AD07EA7F00FEEF2402F58274DC
:1009A600003EF583E5822DF582E5833CF583E0FD87
:0609B600AF03120A352216
:100A8F0020B22F900001E004F07006900000E00407
:100A9F00F0D3900001E094C8900000E09400501251
:100AAF0020090F900402E004F0E094034002E4F008
:100ABF00D209D3900001E094C8900000E094004068
:0A0ACF000930B206E4F0A3F0C209FA
:010AD90022FA
:03000B000209BC2B
:0D09BC00C0E0C0F0C083C082C0D075D0087C
:1009C900E4FFEF25E02403F582E43404F583E0FC39
:1009D900A3E04C6047EF25E02403F582E43404F5F5
:1009E90083E475F0011207F6EF25E02403F582E4AC
:1009F9003404F583E0FCA3E0FDBC0120BD771DEFC5
:100A090025E02403F582E43404F583E4F0A3F074CB
:100A1900FEA80F088002C333D8FC52A00FEFB40818
:010A2900A12B
:0B0A2A00D0D0D082D083D0F0D0E032DA
:1008B600020B56E493A3F8E493A34003F68001F2F7
:1008C60008DFF48029E493A3F85407240CC8C33343
:1008D600C4540F4420C8834004F456800146F6DF12
:1008E600E4800B010204081020408090000EE47E94
:1008F600019360BCA3FF543F30E509541FFEE49307
:10090600A360010ECF54C025E060A840B8E493A3CD
:10091600FAE493A3F8E493A3C8C582C8CAC583CAF8
:10092600F0A3C8C582C8CAC583CADFE9DEE780BEB0
:01043B0000C0
:1007A100BC000BBE0029EF8DF084FFADF022E4CC3C
:1007B100F875F008EF2FFFEE33FEEC33FCEE9DEC05
:1007C100984005FCEE9DFE0FD5F0E9E4CEFD22ED4B
:1007D100F8F5F0EE8420D21CFEADF075F008EF2F95
:1007E100FFED33FD4007985006D5F0F222C398FD86
:0507F1000FD5F0EA2223
:1007F600C5F0F8A3E028F0C5F0F8E582158270028E
:060806001583E038F0222A
:10043C00E510241FF582E43404F583E005102290C6
:10044C00041C30070390041FE475F00112086402C9
:10045C00080C2000E97F2ED2008018EF540F249056
:10046C00D43440D4FF30040BEF24BFB41A00500333
:10047C002461FFE511600215110514E514700205E5
:10048C001330070E90041CE475F001120864EF029F
:10049C000852020BAA7403D2078003E4C207F510BA
:1004AC0090041C12087BE4F511F513F514E51160AA
:1004BC00077F2012047F80F57512FFC201C200C2B3
:1004CC0002C203C205C206C20812044BFF700D30F3
:1004DC0007057F00120490AF14AE1322B4255FC23F
:1004EC00D5C20412044BFF24D0B40A00501A75F084
:1004FC000A781130D50508B6FF0106C6A426F620E9
:10050C00D5047002D20380D924CFB41A00EF500462
:10051C00C2E5D204020691D20180C6D20080C0D2BC
:10052C000280BCD2D580BAD20580B47F2012047F61
:10053C002002077401B5110040F112043CFF1204B3
:10054C007F0204B9D208D206809512043CFB120437
:10055C003CFA12043CF94A4B700679627A077BFF2D
:10056C0020022EE511602A7E008E8275830012080F
:10057C002560060EEE651270F0C2D5EBC0E0EAC045
:10058C00E0E9C0E0EE1206D8D0E0F9D0E0FAD0E015
:10059C00FB12080CFF60AAEBC0E0EAC0E0E9C0E087
:1005AC0012047FD0E02401F9D0E03400FAD0E0FB53
:1005BC00E5120460DCD512D980877BFF7A0679D4EA
:1005CC00D202809C791080027908C206C208800889
:1005DC00D2D5790A8004790AC2D5E512047002F5E5
:1005EC0012E4FAFDFEFF12043CFC7B0820011312FE
:1005FC00043CFD7B1030000A12043CFE12043CFF4C
:10060C007B20EC3382D592D55013C3E43000069F87
:10061C00FFE49EFEE42001039DFDE49CFCE4CBF88A
:10062C00C201EC700CCFCECDCCE824F8F870F3807E
:10063C0017C3EF33FFEE33FEED33FDEC33FCEB333E
:10064C00FB994002FB0FD8E9EB300105F8D0E0C470
:10065C0048B201C0E00AEC4D4E4F78207B0070C2CE
:10066C00EAB5120040BCC0E01206DAD0F0D0E020AF
:10067C000104C4C0E0C4B201C0F0120468D0F0D5CB
:10068C00F0EB0204B912088405565305D05805271F
:10069C004C05234205D44F05DC4405DC49053C439D
:0806AC0005E25505C64605C62E
:1006B4004505C647078250052B2D052F2E05522BC5
:1006C400053323055020076B2A04EB480000054A34
:1006D4003F3F3F00790AA2D5200314300509B91021
:1006E400020404B9080104A2D52006025001042022
:1006F40002689202B511005034C0E07F2030031923
:100704007F30A20272067205500F120731C202C274
:1007140006C205C2087F30800F300503E9C0E0122D
:10072400047F300503D0E0F9D0E0B511CC300517D3
:100734007F30B9100C12047F7F583004077F788013
:1007440003B9080312047F3002057F2D02047F7F62
:10075400202008F87F2B2006F322920280CF286EF7
:10076400756C6C2900D20112043C3001F8C2017886
:100774001130D50108F60204EB2D504349581204F8
:100784003C2403B405004001E490077D93120470F7
:0D079400743A120470D2037511040205D0EE
:10080C00BB010689828A83E0225002E722BBFE02EA
:09081C00E32289828A83E493221D
:10082500BB010CE58229F582E5833AF583E0225088
:1008350006E92582F8E622BBFE06E92582F8E222D2
:0D084500E58229F582E5833AF583E49322EC
:10085200BB010689828A83F0225002F722BBFE0185
:02086200F3227F
:10086400F8E0FBA3A3E0F925F0F0E582158270021D
:070874001583E0FA38F022C1
:09087B00EBF0A3EAF0A3E9F0227E
:10088400D083D082F8E4937012740193700DA3A303
:1008940093F8740193F5828883E473740293686017
:0608A400EFA3A3A380DF17
:100BAA00EFB40A07740D120BB5740A309811A8999C
:100BBA00B8130CC2983098FDA899C298B811F630AB
:070BCA0099FDC299F5992283
:00000001FF
